:020000040800F2
:1000000010040020A9010008A70D0008310D000808
:10001000A50D0008B50200081D0E00080000000034
:10002000000000000000000000000000AB0D000810
:10003000B702000800000000A90D0008AD0D00087F
:10004000C3010008C3010008C3010008C301000880
:10005000C3010008C3010008C3010008C301000870
:10006000C3010008C3010008C3010008C301000860
:10007000C3010008C3010008C3010008C301000850
:10008000C3010008C3010008C3010008C301000840
:10009000C3010008C3010008C3010008C301000830
:1000A000C3010008C3010008C3010008C301000820
:1000B000C3010008C3010008C3010008C301000810
:1000C000C3010008C3010008C3010008C301000800
:1000D000C3010008C3010008C3010008C3010008F0
:1000E000C3010008C3010008C301000800000000AC
:1000F0000000000000000000000000000000000000
:10010000C30100080000000000000000C301000857
:10011000C3010008C3010008C3010008000000007B
:10012000C3010008C3010008C3010008C30100089F
:10013000C3010008000000000000000000000000F3
:10014000C3010008C3010008000000000000000017
:10015000000000000000000000000000000000009F
:10016000C3010008C3010008C3010008C30100085F
:10017000C3010008C3010008C3010008C30100084F
:10018000C3010008C30100080000000000000000D7
:10019000C3010008DFF80CD000F07AF800480047EF
:1001A0005D0E0008100400200648804706480047FE
:1001B000FEE7FEE7FEE7FEE7FEE7FEE7FEE7FEE717
:1001C000FEE7FEE7010E0008950100082DE9F05F4B
:1001D0000546002092469B468846064681464024B6
:1001E0001BE0284641464746224600F020F8534689
:1001F0005A46C01A914110D311461846224600F0C3
:1002000038F82D1A67EB01084F46224601200021DD
:1002100000F02FF817EB00094E41201EA4F1010455
:10022000DFDC484631462A464346BDE8F09F202A97
:1002300004DB203A21FA02F00021704721FA02F390
:10024000D040C2F120029140084319467047D2B213
:1002500001E000F8012B491EFBD270470022F6E7AF
:1002600010B513460A4604461946FFF7F0FF20462C
:1002700010BD202A04DB203A00FA02F1002070476A
:100280009140C2F1200320FA03F3194390407047D4
:10029000064C074D06E0E06840F0010394E80700D3
:1002A00098471034AC42F6D3FFF778FF9C0E000855
:1002B000BC0E0008FEE770472DE9F84FDFF8A0B14B
:1002C000002301274FF0030A4FF00F090BF1040E32
:1002D000BEE000BF07FA03F63440220072D04C683B
:1002E000022C01D0122C12D1DC0800EB840CDCF8BB
:1002F00020405D07ED0E09FA05F824EA0804D1F85C
:10030000108008FA05F848EA0408CCF82080D0F8F4
:1003100000805D0091F804C00AFA05F40CF0030CAB
:1003200028EA04080CFA05FC4CEA080CC0F800C0E6
:10033000D1F804C0BCF1010F08D0BCF1020F05D008
:10034000BCF1110F02D0BCF1120F16D1D0F808C0C9
:10035000D1F80C802CEA040C08FA05F848EA0C08DD
:10036000C0F80880D0F804C02CEA060C0E79C6F359
:1003700000169E4046EA0C064660C668A6438C6896
:10038000AC403443C4604C68E40060D5354CA5698A
:1003900045F00105A561A46923F0030504F00104FB
:1003A0000094314C2E19B4689D074FEA157C09FA68
:1003B0000CF5AC43B0F1904F05D02C4DA84204D1C0
:1003C00001251CE043E0002519E0294DA84201D198
:1003D000022514E0274DA84201D103250FE0264D48
:1003E000A84201D104250AE0244DA84201D10525E7
:1003F00005E0234DA84201D1062500E0072505FAB6
:100400000CF52543B560DBF800405D464E6894432B
:10041000F60300D514432C60DEF8004075464E68A4
:100420009443B60300D514432C600D4D08352C6859
:100430004E689443F60200D514432C60084D0C35E9
:100440002C684E689443B60200D514432C605B1CA4
:100450000A681446DA407FF43DAFBDE8F88F00002B
:100460000004014000100240000001400004004868
:1004700000080048000C0048001000480014004824
:10048000001800480AB1816170478162704700001E
:100490000148806870470000000000200248816821
:1004A000027811448160704700000020074810B5B1
:1004B000016841F010010160032000F05FF80020A6
:1004C00000F006F800F024F8002010BD00200240E3
:1004D00070B50D4D04464FF47A712878B1FBF0F0F9
:1004E0000A490968B1FBF0F000F00EFC48B9102C85
:1004F00007D200222146501E00F020F800206C6038
:1005000070BD012070BD0000000000200C00002024
:10051000094808B5816941F001018161816901F0F3
:1005200001010091C16941F08051C161C06900F0D1
:100530008050009008BD000000100240F0B40E4B47
:100540001B680C46C3F30223C3F10705042D00D931
:100550000425191D072901D2002300E0DB1E012616
:1005600006FA05F1491E214099409E40761E16402C
:100570003143F0BC00F053BC0CED00E0064900F044
:10058000070208684FF6FF03184040EA0220034ABA
:1005900010430860704700000CED00E00000FA0511
:1005A0002DE9F0470F46050069D04A4E306800F04B
:1005B0000700B84209D2306820F0070038433060A5
:1005C000306800F00700B84259D12878424C8007C3
:1005D00005D56068A96820F0F000084360602878BD
:1005E000C0073DD06968012001290DD0022923D020
:1005F0005FF0020393FAA3F2B2FA82F242F0200211
:10060000520904D0226803E04FF40033F2E7626A33
:1006100093FAA3F3B3FA83F303F01F039840024263
:100620002DD0606820F0030008436060FFF730FFC2
:10063000804641F288390CE04FF00073DAE700BFE2
:10064000FFF726FFA0EB0801494502D90320BDE8CA
:10065000F0876068696800F00C00B0EB810FEFD1A3
:10066000306800F00700B8420BD9306820F007006E
:1006700038433060306800F00700B84201D00120F4
:10068000E5E72878400705D56068E96820F4E06070
:10069000084360602878000706D56068296920F45F
:1006A000605040EAC100606000F01EF86168F0220E
:1006B00092FAA2F201F0F001B2FA82F2D140074AB6
:1006C000515CC8400649086006480068FFF700FF13
:1006D0000020BCE700200240001002408A0E000803
:1006E0000C00002004000020144A10B55168144882
:1006F00001F00C03042B1FD0082B1DD14FF47014F4
:1007000094FAA4F401F47013B4FA84F4E3400D4CA9
:10071000D26AE45C0F2393FAA3F302F00F02B3FA58
:1007200083F3DA40074BC90310339A5C0023194660
:10073000FFF74CFDA0FB040110BD000000100240BB
:1007400000127A006A0E00082DE9F84F04007DD0EF
:100750002078FA4DC0074FF0010637D0686877045B
:10076000C0F38100012819D06868C0F38100022815
:1007700004D16868C0F3C13002280FD06068B0F5BA
:10078000803F24D010B1B0F5A02F2AD0286820F4E3
:1007900080302860286820F480201BE097FAA7F0BA
:1007A000B0FA80F040F02000400901D0286800E055
:1007B000686A97FAA7F1B1FA81F101F01F0106FA10
:1007C00001F108424ED060680028C0D04AE0286895
:1007D00040F480302860606820B3FFF759FE8046FF
:1007E0000AE0286840F480202860F0E7FFF750FE18
:1007F000A0EB0800642873D897FAA7F0B0FA80F04D
:1008000040F02000400901D0286800E0686A97FAAB
:10081000A7F1B1FA81F101F01F0106FA01F10842D6
:10082000E4D01FE0FFF734FE804605E0FFF730FE1E
:10083000A0EB08006428DED897FAA7F0B0FA80F0A1
:1008400040F02000400902D0286801E0B9E0686A61
:1008500097FAA7F1B1FA81F101F01F0106FA01F14F
:100860000842E3D12078DFF8D88280074FF0000AF1
:100870004FF002075DD568684FF0F80B10F00C0FD1
:1008800015D06868C0F38100022804D16868C0F3FD
:10089000C13001280BD0E068A0B396FAA6F0B0FAF8
:1008A00080F048F82060FFF7F3FD814620E097FADA
:1008B000A7F0B0FA80F040F02000400901D028688D
:1008C00000E0686A97FAA7F1B1FA81F101F01F011F
:1008D00006FA01F1084221D0E068012871D11DE03B
:1008E00056E100BFFFF7D4FDA0EB09000228A2D813
:1008F00097FAA7F0B0FA80F040F02000400902D04B
:10090000286801E016E0686A97FAA7F1B1FA81F168
:1009100001F01F0106FA01F10842E3D028689BFAB2
:10092000ABF22169B2FA82F220F0F800914008435C
:10093000286024E096FAA6F1B1FA81F148F821A0E6
:10094000FFF7A6FD814605E0FFF7A2FDA0EB090039
:100950000228CCD897FAA7F0B0FA80F040F0200037
:10096000400901D0286800E0686A97FAA7F1B1FA57
:1009700081F101F01F0106FA01F10842E4D120786B
:1009800000076AD56069A0B396FAA6F0B0FA80F0C5
:1009900008EB8000C0F88064FFF77AFD814605E02F
:1009A000FFF776FDA0EB09000228A0D897FAA7F080
:1009B000B0FA80F040F06000B6EB501F02D128681A
:1009C0000CE09DE197FAA7F0B0FA80F040F06000EB
:1009D000B7EB501F01D1286A00E0686A97FAA7F1C7
:1009E000B1FA81F101F01F0106FA01F21042D7D0ED
:1009F00033E0FFE796FAA6F0B0FA80F008EB80004B
:100A0000C0F880A4FFF744FD814605E0FFF740FDF4
:100A1000A0EB090002289CD897FAA7F0B0FA80F062
:100A200040F06000B6EB501F01D128680BE097FA48
:100A3000A7F0B0FA80F040F06000B7EB501F01D192
:100A4000286A00E0686A97FAA7F1B1FA81F101F02B
:100A50001F0106FA01F21042D8D12078400774D560
:100A6000E8694FF00009C00009D4E86940F08050FF
:100A7000E861E8694FF0010900F0805000903148CA
:100A80000168C90512D4016841F480710160FFF763
:100A9000FFFC834606E000BFFFF7FAFCA0EB0B006B
:100AA000642875D827480068C005F5D5A0680128D6
:100AB0000AD008B1052811D0286A20F00100286268
:100AC000286A20F0040002E0286A40F00100286251
:100AD000A068C8B3FFF7DCFC83460DE0286A40F04D
:100AE00004002862F0E700BFFFF7D2FCA0EB0B0187
:100AF00041F2883081424BD897FAA7F0B0FA80F0E3
:100B000040F04000B6EB501F01D128680BE097FA87
:100B1000A7F0B0FA80F040F04000B7EB501F01D1D1
:100B2000286A00E0686A97FAA7F1B1FA81F101F04A
:100B30001F0106FA01F21042D6D035E00010024043
:100B4000000042420070004000E034E0FFF7A0FCEB
:100B5000834607E0FFF79CFCA0EB0B0141F28830D5
:100B6000814215D897FAA7F0B0FA80F040F0400023
:100B7000B6EB501F01D128680CE097FAA7F0B0FA45
:100B800080F040F04000B7EB501F02D1286A01E02E
:100B900089E0686A97FAA7F1B1FA81F101F01F01C3
:100BA00006FA01F21042D5D1B9F1000F03D0E8697D
:100BB00020F08050E861A06980B36968C1F38101C9
:100BC000022973D04FF080714F000228524609D09D
:100BD00091FAA1F0B0FA80F048F82020FFF758FC15
:100BE000044664E091FAA1F0B0FA80F08A46C1466A
:100BF00048F82020FFF74CFC804605E0FFF748FC52
:100C0000A0EB080002284ED897FAA7F0B0FA80F0BF
:100C100040F02000400902D0286801E072E0686AD4
:100C200097FAA7F1B1FA81F101F01F0106FA01F17B
:100C30000842E3D1E86A616A20F00F000843E862E5
:100C4000D4E907100843696821F476110843686005
:100C50009AFAAAF0B0FA80F049F82060FFF718FC81
:100C6000044604E0FFF714FC001B02281BD897FA87
:100C7000A7F0B0FA80F040F02000400901D02868C9
:100C800000E0686A97FAA7F1B1FA81F101F01F015B
:100C900006FA01F10842E5D034E000BFFFF7F8FBA7
:100CA000001B022803D90320BDE8F88F15E097FA4E
:100CB000A7F0B0FA80F040F02000400901D0286889
:100CC00000E0686A97FAA7F1B1FA81F101F01F011B
:100CD00006FA01F10842E1D114E00128E4D0686885
:100CE000E96AE36900F4C0329A4209D1226A00F449
:100CF0007010904204D101F00F00616A884201D067
:100D00000120D1E70020CFE710B5401EB0F1807F71
:100D100001D3012010BD4FF0E02460610F21601766
:100D200000F07DF80020A06107202061002010BDA8
:100D3000FEE7000030B587B014216846FFF78EFA51
:100D40001648416941F480014161416901F4800123
:100D50000591416941F480214161416901F480219B
:100D60000591416941F40031416140690C4D00F445
:100D700000304FF470440590002221462846FFF7CA
:100D800081FB012000210094CDE901010391694616
:100D90002846FFF791FA07B030BD0000001002406E
:100DA00000040048FEE7704770477047FFF776BBC6
:100DB00030B58FB028216846FFF750FA14210AA8F1
:100DC000FFF74CFA01200104CDE900010225039050
:100DD000002406954FF4E0100994CDE90710684609
:100DE000FFF7B2FC0F20CDE90A056802CDE90C40FF
:100DF00002210AA80E94FFF7D3FB0FB030BD00000C
:100E00000548016841F47001016003494FF000603A
:100E1000803908607047000088ED00E0FEE70907B0
:100E2000090E002804DB00F1E02080F80014704770
:100E300000F00F0000F1E02080F8141D704702E080
:100E400008C8121F08C1002AFAD170477047002055
:100E500001E001C1121F002AFBD17047FFF726FBFA
:100E6000FFF7A6FFFFF766FFFEE70203040506078C
:100E700008090A0B0C0D0E0F1010010203040506E1
:100E80000708090A0B0C0D0E0F10000000000000EF
:100E9000000001020304060708090000BC0E000858
:100EA00000000020100000003E0E0008CC0E0008DC
:100EB00010000020000400004E0E00080100000099
:0C0EC000100000000000000000127A008A
:040000050800019559
:00000001FF
