:020000040800F2
:10000000E0040020A9010008B71500089B140008AF
:10001000B5150008C50200082D1B000800000000EF
:10002000000000000000000000000000FD150008B6
:10003000C702000800000000B9150008FF150008FD
:10004000C3010008C3010008C3010008C301000880
:10005000C3010008C3010008C3010008C301000870
:10006000C3010008C3010008C3010008C301000860
:10007000C3010008C3010008C3010008C301000850
:10008000C3010008C3010008C3010008C301000840
:10009000C3010008C3010008C3010008C301000830
:1000A000C3010008C3010008C3010008C301000820
:1000B000C3010008C3010008C3010008C301000810
:1000C000C3010008C3010008C3010008C301000800
:1000D000C3010008C3010008C3010008211B000878
:1000E000C3010008C3010008C301000800000000AC
:1000F0000000000000000000000000000000000000
:10010000C30100080000000000000000C301000857
:10011000C3010008C3010008C3010008000000007B
:10012000C3010008C3010008C3010008C30100089F
:10013000C3010008000000000000000000000000F3
:10014000C3010008C3010008000000000000000017
:10015000000000000000000000000000000000009F
:10016000C3010008C3010008C3010008C30100085F
:10017000C3010008C3010008C3010008C30100084F
:10018000C3010008C30100080000000000000000D7
:10019000C3010008DFF80CD000F082F800480047E7
:1001A000791C0008E0040020064880470648004704
:1001B000FEE7FEE7FEE7FEE7FEE7FEE7FEE7FEE717
:1001C000FEE7FEE771160008950100082DE9F05FD3
:1001D0000546002092469B468846064681464024B6
:1001E0001BE0284641464746224600F020F8534689
:1001F0005A46C01A914110D311461846224600F0C3
:100200003FF82D1A67EB01084F46224601200021D6
:1002100000F036F817EB00094E41201EA4F101044E
:10022000DFDC484631462A464346BDE8F09F202A97
:1002300004DB203A21FA02F00021704721FA02F390
:10024000D040C2F120029140084319467047D2B213
:1002500001E000F8012B491EFBD270470022F6E7AF
:1002600010B513460A4604461946FFF7F0FF20462C
:1002700010BD421C10F8011B0029FBD1801A7047E9
:10028000202A04DB203A00FA02F100207047914056
:10029000C2F1200320FA03F3194390407047000095
:1002A000064C074D06E0E06840F0010394E80700C3
:1002B00098471034AC42F6D3FFF770FF381D0008A2
:1002C000581D0008FEE7704710B590F82110002473
:1002D000022903D004218163012418E001680A681F
:1002E00022F00E020A6001680A6822F001020A6028
:1002F00090F84020C36B012101FA02F25A6080F8A5
:100300002110002180F82010416B01B18847204660
:1003100010BD000070B5044600F0FEF80546601CF4
:1003200002D004480078044400F0F6F8401BA042D4
:10033000FAD370BD0C0000202DE9F84FDFF8A0B112
:10034000002301274FF0030A4FF00F090BF1040EB1
:10035000BEE000BF07FA03F63440220072D04C68BA
:10036000022C01D0122C12D1DC0800EB840CDCF83A
:1003700020405D07ED0E09FA05F824EA0804D1F8DB
:10038000108008FA05F848EA0408CCF82080D0F874
:1003900000805D0091F804C00AFA05F40CF0030C2B
:1003A00028EA04080CFA05FC4CEA080CC0F800C066
:1003B000D1F804C0BCF1010F08D0BCF1020F05D088
:1003C000BCF1110F02D0BCF1120F16D1D0F808C049
:1003D000D1F80C802CEA040C08FA05F848EA0C085D
:1003E000C0F80880D0F804C02CEA060C0E79C6F3D9
:1003F00000169E4046EA0C064660C668A6438C6816
:10040000AC403443C4604C68E40060D5354CA56909
:1004100045F00105A561A46923F0030504F001047A
:100420000094314C2E19B4689D074FEA157C09FAE7
:100430000CF5AC43B0F1904F05D02C4DA84204D13F
:1004400001251CE043E0002519E0294DA84201D117
:10045000022514E0274DA84201D103250FE0264DC7
:10046000A84201D104250AE0244DA84201D1052566
:1004700005E0234DA84201D1062500E0072505FA35
:100480000CF52543B560DBF800405D464E689443AB
:10049000F60300D514432C60DEF8004075464E6824
:1004A0009443B60300D514432C600D4D08352C68D9
:1004B0004E689443F60200D514432C60084D0C3569
:1004C0002C684E689443B60200D514432C605B1C24
:1004D0000A681446DA407FF43DAFBDE8F88F0000AB
:1004E00000040140001002400000014000040048E8
:1004F00000080048000C00480010004800140048A4
:10050000001800480069084000D0012070470AB177
:1005100081617047816270470148806870470000C0
:100520000C00002002488168027811448160704705
:100530000C000020074810B5016841F0100101606F
:10054000032000F06DF8002000F006F800F024F819
:10055000002010BD0020024070B50D4D04464FF440
:100560007A712878B1FBF0F00A490968B1FBF0F024
:1005700000F08CFD48B9102C07D200222146501EF5
:1005800000F02EF800206C6070BD012070BD0000EE
:100590000C00002018000020094808B5816941F0CE
:1005A00001018161816901F001010091C16941F09E
:1005B0008051C161C06900F08050009008BD00000A
:1005C00000100240002809DB00F01F0201219140C9
:1005D0004009800000F1E020C0F8001170470000E1
:1005E000F0B40E4B1B680C46C3F30223C3F107059E
:1005F000042D00D90425191D072901D2002300E08C
:10060000DB1E012606FA05F1491E214099409E4055
:10061000761E16403143F0BC01F09EBA0CED00E0AE
:10062000064900F0070208684FF6FF03184040EA49
:100630000220034A10430860704700000CED00E000
:100640000000FA052DE9F84F04460068924DC003FA
:100650006FD5E8690026C00008D4E86940F08050F2
:10066000E861E869012600F0805000908B4801683D
:10067000C90512D40168804641F480710160FFF71A
:100680004BFF074605E000BFFFF746FFC01B64288D
:1006900035D8D8F80000C005F6D5286A10F44070A7
:1006A00053D0A18801F4407181424ED0286A4FF4A2
:1006B000803191FAA1F2B2FA82F29700784A4FF0B3
:1006C0000108174420F44070C7F8008491FAA1F1A2
:1006D000B1FA81F102EB81010023C1F800342862F4
:1006E000C00732D0FFF718FF074641F2883A4FF0B3
:1006F000020907E0FFF710FFC11B514502D9032093
:10070000BDE8F88F99FAA9F1B1FA81F141F0400200
:100710004846B8EB521F01D12A680CE090FAA0F2CB
:10072000B2FA82F242F04002B0EB521F02D12A6AC2
:1007300001E015E06A6A99FAA9F0B0FA80F000F0D9
:100740001F0008FA00F10A42D4D0286A616820F438
:100750004070084328621EB1E86920F08050E861CB
:100760002078C00705D0286BA16820F0030008435B
:1007700028632078800705D5286BE16820F4403095
:10078000084328632078400705D5286B216920F4A9
:100790004020084328632078800605D5286BE1694E
:1007A00020F01000084328632068800305D568689E
:1007B000A16C20F48000084368602078400605D5CD
:1007C000286B216A20F0200008432863206840033A
:1007D00005D5286B616A20F0400008432863207823
:1007E000000705D5286B616920F440100843286391
:1007F0002078C00605D5286BA16920F44000084385
:1008000028632088800505D56868E16A20F4000027
:10081000084368602078000605D5E86AA16A20F4DC
:10082000F8700843E8622088C00405D5286B216B66
:1008300020F48070084328632068C00205D5286B27
:10084000616B20F08070084328632068800205D522
:10085000286BA16B20F000700843286320684002D9
:1008600005D5286BE16B20F480600843286320687D
:10087000000205D5286B216C20F400600843286332
:100880002068C00105D5286B616C20F40050084336
:100890002863002034E70000001002400070004090
:1008A000000042422DE9F0470F46050069D04A4E4C
:1008B000306800F00700B84209D2306820F0070025
:1008C00038433060306800F00700B84259D12878CA
:1008D000424C800705D56068A96820F0F000084305
:1008E00060602878C0073DD06968012001290DD0DB
:1008F000022923D05FF0020393FAA3F2B2FA82F244
:1009000042F02002520904D0226803E04FF4003381
:10091000F2E7626A93FAA3F3B3FA83F303F01F03D7
:10092000984002422DD0606820F0030008436060C8
:10093000FFF7F2FD804641F288390CE04FF000737A
:10094000DAE700BFFFF7E8FDA0EB0801494502D94F
:100950000320BDE8F0876068696800F00C00B0EB28
:10096000810FEFD1306800F00700B8420BD9306832
:1009700020F0070038433060306800F00700B842CC
:1009800001D00120E5E72878400705D56068E968CF
:1009900020F4E060084360602878000706D56068AE
:1009A000296920F4605040EAC100606000F04EF810
:1009B0006168F02292FAA2F201F0F001B2FA82F23A
:1009C000D140074A515CC8400649086006480068A3
:1009D000FFF7C2FD0020BCE70020024000100240EB
:1009E000141D0008180000201000002008480949C4
:1009F000006849684FF4E06292FAA2F201F4E06103
:100A0000B2FA82F2D140044A515CC84070470000FB
:100A10001800002000100240241D00080848094961
:100A2000006849684FF4605292FAA2F201F46051F2
:100A3000B2FA82F2D140044A515CC84070470000CB
:100A40001800002000100240241D0008144A10B5B0
:100A50005168144801F00C03042B1FD0082B1DD142
:100A60004FF4701494FAA4F401F47013B4FA84F4FB
:100A7000E3400D4CD26AE45C0F2393FAA3F302F037
:100A80000F02B3FA83F3DA40074BC90310339A5CC1
:100A900000231946FFF79AFBA0FB040110BD0000DC
:100AA0000010024000127A00F41C00082DE9F84FF3
:100AB00004007DD02078FA4DC0074FF0010637D0F2
:100AC00068687704C0F38100012819D06868C0F312
:100AD0008100022804D16868C0F3C13002280FD019
:100AE0006068B0F5803F24D010B1B0F5A02F2AD0B7
:100AF000286820F480302860286820F480201BE0DB
:100B000097FAA7F0B0FA80F040F02000400901D039
:100B1000286800E0686A97FAA7F1B1FA81F101F05C
:100B20001F0106FA01F108424ED060680028C0D0CB
:100B30004AE0286840F480302860606820B3FFF7FE
:100B4000EBFC80460AE0286840F480202860F0E74B
:100B5000FFF7E2FCA0EB0800642873D897FAA7F02F
:100B6000B0FA80F040F02000400901D0286800E091
:100B7000686A97FAA7F1B1FA81F101F01F0106FA4C
:100B800001F10842E4D01FE0FFF7C6FC804605E013
:100B9000FFF7C2FCA0EB08006428DED897FAA7F0A4
:100BA000B0FA80F040F02000400902D0286801E04F
:100BB000B9E0686A97FAA7F1B1FA81F101F01F0173
:100BC00006FA01F10842E3D12078DFF8D8828007E5
:100BD0004FF0000A4FF002075DD568684FF0F80B40
:100BE00010F00C0F15D06868C0F38100022804D102
:100BF0006868C0F3C13001280BD0E068A0B396FA52
:100C0000A6F0B0FA80F048F82060FFF785FC814636
:100C100020E097FAA7F0B0FA80F040F020004009F9
:100C200001D0286800E0686A97FAA7F1B1FA81F16B
:100C300001F01F0106FA01F1084221D0E068012805
:100C400071D11DE056E100BFFFF766FCA0EB090083
:100C50000228A2D897FAA7F0B0FA80F040F020005E
:100C6000400902D0286801E016E0686A97FAA7F107
:100C7000B1FA81F101F01F0106FA01F10842E3D057
:100C800028689BFAABF22169B2FA82F220F0F800F0
:100C900091400843286024E096FAA6F1B1FA81F168
:100CA00048F821A0FFF738FC814605E0FFF734FC47
:100CB000A0EB09000228CCD897FAA7F0B0FA80F090
:100CC00040F02000400901D0286800E0686A97FAE7
:100CD000A7F1B1FA81F101F01F0106FA01F1084212
:100CE000E4D1207800076AD56069A0B396FAA6F02F
:100CF000B0FA80F008EB8000C0F88064FFF70CFCCD
:100D0000814605E0FFF708FCA0EB09000228A0D807
:100D100097FAA7F0B0FA80F040F06000B6EB501FF1
:100D200002D128680CE09DE197FAA7F0B0FA80F0B4
:100D300040F06000B7EB501F01D1286A00E0686AFC
:100D400097FAA7F1B1FA81F101F01F0106FA01F259
:100D50001042D7D033E0FFE796FAA6F0B0FA80F061
:100D600008EB8000C0F880A4FFF7D6FB814605E0C1
:100D7000FFF7D2FBA0EB090002289CD897FAA7F056
:100D8000B0FA80F040F06000B6EB501F01D1286847
:100D90000BE097FAA7F0B0FA80F040F06000B7EBF4
:100DA000501F01D1286A00E0686A97FAA7F1B1FAEA
:100DB00081F101F01F0106FA01F21042D8D120782A
:100DC000400774D5E8694FF00009C00009D4E8690C
:100DD00040F08050E861E8694FF0010900F0805070
:100DE000009031480168C90512D4016841F480714E
:100DF0000160FFF791FB834606E000BFFFF78CFB25
:100E0000A0EB0B00642875D827480068C005F5D50D
:100E1000A06801280AD008B1052811D0286A20F05E
:100E200001002862286A20F0040002E0286A40F0ED
:100E300001002862A068C8B3FFF76EFB83460DE08F
:100E4000286A40F004002862F0E700BFFFF764FB67
:100E5000A0EB0B0141F2883081424BD897FAA7F002
:100E6000B0FA80F040F04000B6EB501F01D1286886
:100E70000BE097FAA7F0B0FA80F040F04000B7EB33
:100E8000501F01D1286A00E0686A97FAA7F1B1FA09
:100E900081F101F01F0106FA01F21042D6D035E0CF
:100EA00000100240000042420070004000E034E0C8
:100EB000FFF732FB834607E0FFF72EFBA0EB0B01A9
:100EC00041F28830814215D897FAA7F0B0FA80F045
:100ED00040F04000B6EB501F01D128680CE097FAB3
:100EE000A7F0B0FA80F040F04000B7EB501F02D1FD
:100EF000286A01E089E0686A97FAA7F1B1FA81F1FE
:100F000001F01F0106FA01F21042D5D1B9F1000F2C
:100F100003D0E86920F08050E861A06980B3696877
:100F2000C1F38101022973D04FF080714F00022874
:100F3000524609D091FAA1F0B0FA80F048F820208A
:100F4000FFF7EAFA044664E091FAA1F0B0FA80F003
:100F50008A46C14648F82020FFF7DEFA804605E0C1
:100F6000FFF7DAFAA0EB080002284ED897FAA7F0AC
:100F7000B0FA80F040F02000400902D0286801E07B
:100F800072E0686A97FAA7F1B1FA81F101F01F01E6
:100F900006FA01F10842E3D1E86A616A20F00F0025
:100FA0000843E862D4E907100843696821F4761120
:100FB000084368609AFAAAF0B0FA80F049F8206015
:100FC000FFF7AAFA044604E0FFF7A6FA001B02287E
:100FD0001BD897FAA7F0B0FA80F040F02000400943
:100FE00001D0286800E0686A97FAA7F1B1FA81F1A8
:100FF00001F01F0106FA01F10842E5D034E000BF1C
:10100000FFF78AFA001B022803D90320BDE8F88FF6
:1010100015E097FAA7F0B0FA80F040F02000400900
:1010200001D0286800E0686A97FAA7F1B1FA81F167
:1010300001F01F0106FA01F10842E1D114E0012894
:10104000E4D06868E96AE36900F4C0329A4209D1E1
:10105000226A00F47010904204D101F00F00616A1E
:10106000884201D00120D1E70020CFE706488188DF
:10107000491C89B28180B1F57A7F04D10021818039
:101080004188491C418070470000002010B5401E77
:10109000B0F1807F01D3012010BD4FF0E0246061EA
:1010A0000F21601700F058FD0020A061072020618B
:1010B000002010BD704770472DE9F04102680446DA
:1010C000D0691168936840F60F0528424FF000057B
:1010D00005D186067BD58E0679D5216E88E003F092
:1010E000010601F49077374371D0C70707D0CF05C9
:1010F00005D501271762E26F42F00102E26782071D
:1011000008D5DA0706D0276802223A62E26F42F079
:101110000402E267420708D5DA0706D023680422F2
:101120001A62E26F42F00202E26702070AD501F09A
:101130002002324306D0236808221A62E26F42F08E
:101140000802E267020509D54A0107D523684FF472
:1011500000621A62E26F42F02002E267E26F002A48
:101160002ED0800605D5880603D5216E09B120460C
:101170008847E06F21688968490602D410F0280F7B
:1011800020D0204600F01CFB20688168490614D559
:10119000816821F040018160E06E70B11D494163BA
:1011A000E06EFFF791F800280AD0E06E416B00E096
:1011B0002046BDE8F041084709E02046FFF77BFFE5
:1011C000BDE8F0812046FFF776FFE567F8E7C60245
:1011D00009D55B0207D54FF4801010622046BDE8A8
:1011E000F041FFF767BF030605D50B0603D5616E17
:1011F0000029DDD1E4E74006E2D54806E0D51168D4
:10120000204621F04001116020216167656600F0F1
:1012100043F9D5E7AD17000810B5040002D0606FA0
:1012200010B107E0012010BD002084F870002046B6
:1012300000F026F8242060672068016821F0010191
:101240000160204600F026FB0128ECD0606A10B156
:10125000204600F01BFA2068416821F4904141606B
:101260002068816821F02A0181602068016841F0CE
:10127000010101602046BDE8104000F06BBA00009B
:1012800010B586B0044614216846FEF7E7FF1749FB
:101290002068884227D11648C16941F48021C16184
:1012A000C16901F480210591416941F40021416146
:1012B0004069694600F4002005904FF440600090BA
:1012C0000220019000200290032003900720049048
:1012D0000848FFF731F8002211462720FFF780F970
:1012E0002720FFF76FF906B010BD0000004800404E
:1012F000001002400008004830B5836F202B4BD10E
:10130000B1B1AAB190F87030012B45D0012380F81B
:1013100070304165A0F85820A0F85A2000210166DD
:101320001D038268FF23AA4207D1026912B125E09A
:10133000012030BD40F2FF1226E07F24E2B1B2F17D
:10134000805F1ED0A0F85C10C1672222826702680D
:10135000936843F0010393608268AA4201D1026955
:10136000C2B10E4A026680F870100068016841F44C
:1013700090710160002030BD026942B9A0F85C3074
:10138000E2E702691AB13F22A0F85C20DCE7A0F88E
:101390005C40D9E7024AE5E7022030BD3918000871
:1013A000DF17000800680D49884215D10C4A00205B
:1013B000A2F114010B5C1354401C0F28FADB00202F
:1013C00002460A54401C1428FBDB05491422143938
:1013D000A1F19E00FFF790BF704700000048004059
:1013E000CE0000202DE9F8430446406F1F46164604
:1013F0000D4620284ED1CDB1C6B194F87000012819
:1014000048D0012084F870004FF00008C4F87C80B8
:1014100021206067FFF780F8A4F850608146A4F8A7
:101420005260A068B0F5805F03D004E00120BDE801
:10143000F883206910B12E46002510E000260EE04A
:101440008021204600F01AFBB8B9C6B116F8010B8E
:1014500021680885B4F85200401EA4F85200B4F880
:1014600052004B464FF0000200970028E8D14FF0A1
:101470004001204600F002FB30B10320D7E735F8E9
:10148000020BC0F30800E3E72020606784F8708057
:101490000020CCE70220CAE77047FEE72DE9F043C1
:1014A00087B014216846FEF7D9FE3448416941F4FB
:1014B00080014161416901F480010591416941F474
:1014C00080214161416901F480210591416941F424
:1014D00000314161416901F400310591416941F4F4
:1014E00000214161416901F400210591416941F404
:1014F000801141614069DFF8889000F480104FF25C
:1015000040040590002221464846FFF700F84FF4BA
:1015100080564FF09047002231463846FEF7F7FFDD
:10152000DFF86080002204214046FEF7F0FF01252D
:10153000CDE9004500240294694648460394FEF72D
:10154000FBFE0096CDE90154694638460394FEF748
:10155000F3FE04200090CDE901546946404603940F
:10156000FEF7EAFE0820CDE90004694648460294E9
:10157000FEF7E2FE07B0BDE8F08300000010024075
:1015800000040048000C00480948084901604FF475
:1015900016514160002181600C22C160C0E9041233
:1015A0008161C16101624162FFF736BE00480040BF
:1015B0001C000020FEE770477047000070B50A204D
:1015C000FEF7A8FE012214034FF09045214628465D
:1015D000FEF79DFF40F24C40FEF79CFE00222146A4
:1015E0002846FEF794FF044C08212046FEF78AFFA8
:1015F0000028F9D070BD000000040048704710B505
:10160000FEF790FFBDE81040FFF730BD30B5A3B046
:10161000282113A8FEF722FE14211DA8FEF71EFEA6
:101620004C216846FEF71AFE01200104CDE91301A2
:1016300016904FF4E010CDE91A10022500241995F8
:101640001C9413A8FFF732FA0F20CDE91D0568029C
:10165000CDE91F4002211DA82194FFF723F90420A2
:10166000009004946846FEF7EDFF23B030BD000003
:101670000548016841F47001016003494FF00060C2
:10168000803908607047000088ED00E090F8241071
:10169000C90706D001684A68836A22F400321A43F7
:1016A0004A6090F82410890706D501684A68C36A21
:1016B00022F480321A434A6090F82410490706D574
:1016C00001684A68036B22F480221A434A6090F84A
:1016D0002410090706D501684A68436B22F40042CA
:1016E0001A434A6090F82410C90606D501688A6832
:1016F000836B22F480521A438A6090F82410890682
:1017000006D501688A68C36B22F400521A438A60C6
:1017100090F82410490611D501684A68036C22F438
:1017200080121A434A60016CB1F5801F06D101682E
:101730004A68436C22F4C0021A434A6090F82410AD
:10174000090606D501684A68806C22F4002202432B
:101750004A607047F8B500260446C667FEF7DCFE0F
:101760000546206800686FF07E47000708D52B46C5
:1017700000224FF400112046009700F07FF960B975
:101780002068006840070AD52B4600224FF48001EC
:101790002046009700F072F908B10320F8BD202020
:1017A0006067A06784F870600020F8BD10B5406ADB
:1017B0000021A0F85A10A0F85210FFF77CFC10BDD1
:1017C00001680A6822F490720A6001688A6822F04F
:1017D00001028A602021816700210166704710B5EF
:1017E000B0F85C20836F0168222B04D0886940F038
:1017F0000800886110BD898C436D11401980416DCE
:10180000891C4165B0F85A10491EA0F85A10B0F86A
:101810005A100029EED101680A6822F490720A6019
:1018200001688A6822F001028A6020218167002114
:101830000166FFF7B7FD10BD10B5B0F85C20836FEF
:101840000168222B04D0886940F00800886110BD2F
:10185000898C1140426D1170416D491C4165B0F891
:101860005A10491EA0F85A10B0F85A100029EED1AB
:1018700001680A6822F490720A6001688A6822F09E
:1018800001028A602021816700210166FFF78AFD3D
:1018900010BD000070B5044680682169E269084304
:1018A000616900251143084321680A686A4B1A40A0
:1018B00002430A6020684168E26821F44051114304
:1018C0004160A169206A084321688A6822F4306275
:1018D00002438A60614B206861494FF4803298422C
:1018E0000CD1086B10F0030006D001285DD002284F
:1018F0005DD0032844D156E0012142E0594B984283
:101900000CD1086B10F440304BD090424DD0B0F564
:10191000003F4CD0B0F5403F32D144E0524B9842AA
:101920000DD1086B10F440203BD0B0F5802F3CD097
:10193000B0F5002F3BD0B0F5402F21D133E04B4B19
:1019400098420DD1086B10F440102AD0B0F5801FDA
:101950002BD0B0F5001F2AD0B0F5401F10D122E0E7
:10196000434B98420CD1086B10F4400019D0B0F5ED
:10197000800F1AD0B0F5000F19D0B0F5400F12D07B
:101980001021E0694FF400434FF6EF76984233D1CF
:1019900009295AD2DFE801F00D1026592959595961
:1019A0002C000021EDE70221EBE70421E9E7082103
:1019B000E7E7FFF71BF801E0FFF730F84100606848
:1019C00001EB5001B1FBF0F080B2A0F11001B14287
:1019D0003BD84FF6F0710140C0F34200014320684C
:1019E000C16033E023496068EAE7FFF72FF8E5E7D5
:1019F000606802EB5001E5E7092926D2DFE801F033
:101A0000050817251C2525251F00FEF7EFFF01E01F
:101A1000FFF704F8616800EB5100B0FBF1F080B211
:101A2000A0F11001B14210D82168C8600EE012493F
:101A3000606801EB500105E0FFF708F8EAE760682D
:101A400003EB5001B1FBF0F0E9E70125002020662F
:101A50006066284670BD0000F369FFEF0038014062
:101A6000001002400044004000480040004C00408C
:101A7000005000400024F40000127A002DE9F047E5
:101A80009A4617460E4604464FF000094FF02008CC
:101A9000089D39E0681C37D0FEF73EFDA0EB0A0038
:101AA000A84222D80DB32068016849072CD5C06927
:101AB000C043000528D421684FF400600862206804
:101AC000016821F4D07101602068816821F0010172
:101AD0008160C4F87480C4F87880C4F87C8000BF4A
:101AE00084F870900320BDE8F0872068016821F435
:101AF000D07101602068816821F001018160C4F823
:101B00007480C4F87880EBE72068C06936EA00008A
:101B100004D00020B842BDD00020E4E70120F9E75E
:101B20000148FFF7C9BA00001C000020FEE70000D2
:101B30000FB4084B10B504A902AA039800F02BF8C3
:101B4000044602A9002000F091F8204610BC5DF880
:101B500014FB00006D1C00080907090E002804DBB7
:101B600000F1E02080F80014704700F00F0000F151
:101B7000E02080F8141D704702E008C8121F08C159
:101B8000002AFAD170477047002001E001C1121FFE
:101B9000002AFBD170472DE9F84F994692468846B6
:101BA0000546002706E025280AD051464A469047B8
:101BB0006D1C7F1C28780028F5D13846BDE8F88FC9
:101BC000002315F8011F18462E2915D115F8011FFD
:101BD00004232A290DD06FF02F022978A1F13004B7
:101BE000092C09D800EB800002EB400008446D1C72
:101BF000F3E758F8040B6D1C2A78002ADDD0632A1D
:101C000007D0732A0FD0104651464A4690477F1C92
:101C10002AE018F8042B8DF8002000218DF801101F
:101C20006E46012103E058F8046B4FF0FF315A076C
:101C30004FF0000401D409E0641C84420BDA8C42AA
:101C4000FADB325D002AF7D105E0641C8C42FCDB34
:101C5000305D0028F9D1274404E016F8010B514605
:101C60004A469047641EF8D26D1CA3E70A68531CCD
:101C70000B6010707047000008B5FEF75BFCFFF7C3
:101C8000C5FCFFF70BFCFFF77FFC14491422A1F100
:101C90009E00FFF731FB012240211148FEF737FC7F
:101CA000FFF78CFC0A200F4C00900C480D230EA16E
:101CB0001E38A268FFF73CFF08481E38FEF7D9FA25
:101CC000207006481E38FEF7D4FA044982B21E3945
:101CD0006423A1F18000FFF785FBFEE7BA00002036
:101CE000000400480000002061746425733B2563F4
:101CF0002563000002030405060708090A0B0C0D02
:101D00000E0F10100102030405060708090A0B0C48
:101D10000D0E0F100000000000000000010203047F
:101D200006070809000000000102030430333434C0
:101D30003338333938300000581D000800000020C7
:101D40001C000000781B0008741D00081C00002007
:101D5000C4040000881B0008000000000000000010
:101D60002C1D000801000000100000000000000011
:041D700000127A00E3
:040000050800019559
:00000001FF
