:020000040800F2
:100000007004002001010008351200086D0F00087F
:1000100033120008FD010008D5120008000000009E
:10002000000000000000000000000000391200087D
:10003000FF01000800000000371200083B12000812
:100040001B0100081B0100081B0100081B01000820
:100050001B0100081B0100081B0100081B01000810
:100060001B0100081B0100081B0100081B01000800
:100070001B0100081B0100081B0100081B010008F0
:100080001B0100081B0100081B0100081B010008E0
:100090001B0100081B0100081B0100081B010008D0
:1000A0001B0100081B0100081B0100081B010008C0
:1000B0001B0100081B0100081B0100081B010008B0
:1000C0001B0100081B0100081B0100081B010008A0
:1000D0001B0100081B0100081B0100081B01000890
:1000E0001B0100081B0100081B010008DFF80CD0F1
:1000F00000F072F800480047151300087004002053
:100100000648804706480047FEE7FEE7FEE7FEE7B1
:10011000FEE7FEE7FEE7FEE7FEE7FEE78D120008DA
:10012000ED000008D2B201E000F8012B491EFBD21D
:1001300070470022F6E710B513460A4604461946F2
:10014000FFF7F0FF204610BD420005D0C0F3C752B4
:100150005242914201DC0020704700EBC1507047D1
:1001600096230022114600F009B80029A8BF704765
:10017000401C490008BF20F00100704710B4B0FADD
:1001800080FC00FA0CF050EA010404BF10BC704778
:1001900049B1CCF1200421FA04F411FA0CF118BF92
:1001A000012121430843A3EB0C01CB1D4FEA006161
:1001B0004FEA102042BF002010BC704700EBC35034
:1001C00010440029A4BF10BC7047401C490008BF60
:1001D00020F0010010BC7047064C074D06E0E068B7
:1001E00040F0010394E8070098471034AC42F6D37E
:1001F000FFF780FF0414000824140008FEE770478E
:1002000070B5044600F0FEF80546601C02D00448B4
:100210000078044400F0F6F8401BA042FAD370BD09
:100220000C0000202DE9F84FDFF8B891002409F107
:10023000040A0AF1040B23460F270BF1040EC9E050
:100240000125A5402A40AA427DD1674ED1F804C0BD
:10025000ACEB0608B44532D014DCBCF1030F3AD045
:1002600009DCBCF1000F2AD0BCF1010F1CD0BCF19D
:10027000020F31D11DE0BCF1110F17D0BCF1120FEC
:100280002AD119E0B8F5881F19D006DCB8F5803FEF
:1002900015D0B8F5801F1FD111E0B8F5001F0ED0A2
:1002A000B8F5041F18D10AE0CB6815E0CB681B1D18
:1002B00012E0CB6808330FE0CB680C330CE08B689E
:1002C0002BB1012B4FF0080303D0456104E0042358
:1002D00002E0056100E00023FF2A01D8064601E0A4
:1002E00000F104064FEA840501D9A5F12005D6F8EE
:1002F000008007FA05FC28EA0C0803FA05F548EA2D
:100300000508C6F800804D68ED0062D5374DAE692E
:1003100046F00106AE61AD6924F0030605F0010563
:100320000095334D06EB050CDCF80850A607360F98
:1003300007FA06F825EA0805DFF8B880404503D13A
:100340004FF0000817E044E0DFF8AC80404502D1F0
:100350004FF001080FE0DFF8A480404502D14FF0D4
:10036000020808E0DFF89880404502D14FF003080A
:1003700001E04FF0040808FA06F848EA0508CCF84E
:1003800008804D68D9F80060ED034D4601D516434D
:1003900000E096432E604D68DAF80060AD035546E4
:1003A00001D5164300E096432E604D68DBF80060EF
:1003B000ED025D4601D5164300E096432E604D6880
:1003C000DEF80060AD02754601D5164300E09643A5
:1003D0002E60641C0D682A46E5407FF431AFBDE80D
:1003E000F88F0000000401400000111000100240CE
:1003F0000000014000080140000C014000100140D5
:100400000014014001488068704700000C00002083
:1004100070B504001BD094F83D00002520B984F885
:100420003C50204600F06AFA242084F83D00206801
:10043000016821F00101016000F0AEFB4D4A6168E6
:10044000914201D84C4900E04C49884201D2012038
:1004500070BD4B492368B0FBF1F15E6826F03F06A2
:100460000E435E606368934206D94FF49673594316
:100470004FF47A73B1FBF3F12368491C1E6A26F02E
:100480003F06314319626168914210D84900401E0D
:10049000B0FBF1F2521CC2F30B02042A01D2042079
:1004A00022E0B0FBF1F0401CC0F30B001CE0A3689D
:1004B000F3B301EBC10202EB0116421EB2FBF6F2EE
:1004C000521C42F48042120549D093B301EBC102A1
:1004D00002EB0111401EB0FBF1F0401CC0F30B0019
:1004E00040F4804040F400402168CA694CF6FF7334
:1004F0009A431043C861D4E90701084321680A6898
:1005000022F0C00210430860D4E9030101432068CF
:10051000826848F2FF339A4311438160D4E90501B0
:1005200008432168CA6822F0FF021043C86001E056
:100530000EE016E02068016841F0010101602564C9
:10054000202084F83D00256384F83E50002070BDD3
:1005500001EB4106421EB2FBF6F2521CB3E701204A
:10056000C2E701EB4101401EB0FBF1F0401CC0F3BB
:100570000B00B7E7A086010080841E0000093D0043
:1005800040420F002DE9FF4F81B089460446FFF736
:1005900039FF054694F83D004FF0010820287AD134
:1005A000192301224B492046009500F06AFD0028DE
:1005B00071D194F83C0001286DD0012084F83C00F2
:1005C00020680168C90703D1016841F00101016099
:1005D0002068016821F400610160242084F83D0056
:1005E000002626643C48E0624FF0011B202720686B
:1005F000016841F48071016000950022594620464F
:10060000049B00F03EFD002856D1216809F0FE0051
:100610000861FFF7F7FE2168054648694969C0F39C
:100620004000C1F380214FF0A00A0FE0FFF7EAFE7F
:10063000411B0498814200D808B984F83DA0216884
:1006400048694969C0F34000C1F3802194F83D2016
:10065000A02A02D008B90029E8D084F83D702068AB
:100660004169C943890717D4016841F400710160E9
:1006700020684169806919230122164920460095A6
:1006800000F0FFFCC0B984F83D7084F83C600020A5
:1006900005B0BDE8F08F1BE0016841F40071016016
:1006A00021686FF4806048611923012209492046BE
:1006B000009500F0E6FC08B10120E9E7039808F195
:1006C0000108804593D384F83D7084F83C60F3E7DB
:1006D0000220DDE7020010000000FFFF2DE9FF4FC0
:1006E00083B09A46DDE9119793460446DDF84080D1
:1006F000FFF788FE054694F83D0020286FD11923A6
:1007000001227B492046009500F0BBFC0028F5D172
:1007100094F83C00012862D0012084F83C00206855
:100720000168C90703D1016841F001010160216836
:10073000086820F400600860222084F83D00402012
:1007400084F83E0000262664C4F82480A4F82A9089
:10075000608D20856748E062CDE9007553465A46B2
:100760002046049900F01AFC00287DD1208DDFF886
:10077000888168B1012814D0022820D0206801683F
:1007800041F4806101602068416980690090A0E0C7
:100790002068416981690091016841F4007101603C
:1007A00097E02068016821F48061016072B62068DA
:1007B000416981690091016841F400710CE0216890
:1007C000086840F40060086072B620684169816979
:1007D0000091016821F48061016062B679E084E0F3
:1007E00003284FD801280BD002283B464FF00002C7
:1007F0004146204600950ED000F043FCA0BB0FE020
:100800002A463946204600F0BBFC68BB20680069D8
:10081000616A087054E000F034FC28BB72B61AE03C
:100820002068016821F48061016072B62068006967
:10083000616A0870606A401C6062208D401E2085DD
:10084000608D401E60853B46002241462046009553
:1008500000F017FC40B92068016841F400710160A4
:1008600020680069616A00E012E00870606A401C5C
:100870006062218D491E2185618D491E618562B6A8
:1008800021681BE02A463946204600F079FC18B161
:10089000012007B0BDE8F08F20680069616A087028
:1008A000606A401C6062218D491E2185618D491E50
:1008B000618521684A69D24352070AD409690170E7
:1008C000606A401C6062208D401E2085608D401E45
:1008D0006085208D002883D1202084F83D0084F895
:1008E0003E6084F83C600020D3E70220D1E700009E
:1008F000020010000000FFFF0400010010B586B0E8
:100900000021009101910291039100680F498842F2
:100910001AD10F4CA06940F00800A061A069694697
:1009200000F008000490C0200090122001900320E5
:1009300003900848FFF776FCE06940F40010E0619E
:10094000E06900F40010049006B010BD00540040AF
:1009500000100240000C01400248816802781144F6
:10096000816070470C000020074810B5016841F015
:1009700010010160032000F067F8002000F006F885
:1009800000F024F8002010BD0020024070B50D4D8D
:1009900004464FF47A712878B1FBF0F00A490968EF
:1009A000B1FBF0F000F0CEFA48B9102C07D20022CB
:1009B0002146501E00F028F800206C6070BD012018
:1009C00070BD00000C000020180000200C4808B585
:1009D000816941F001018161816901F001010091AA
:1009E000C16941F08051C161C06900F08050009040
:1009F0000448416821F0E06141F00071416008BDA8
:100A00000010024000000140F0B40E4B1B680C4681
:100A1000C3F30223C3F10705042D00D90425191DD2
:100A2000072901D2002300E0DB1E012606FA05F1AA
:100A3000491E214099409E40761E16403143F0BC2D
:100A400000F049BC0CED00E0064900F00702086820
:100A50004FF6FF03184040EA0220034A10430860A3
:100A6000704700000CED00E00000FA052DE9F047AA
:100A70000F46050061D0434E306800F00700B842D1
:100A800009D2306820F0070038433060306800F049
:100A90000700B84251D128683B4C810712D5400766
:100AA00003D5606840F4E06060602878000703D5F3
:100AB000606840F4605060606068A96820F0F000F1
:100AC000084360602878C00728D06868012810D0E3
:100AD0002168022810D0890700292EDA616821F0E8
:100AE000030101436160FFF78DFC804641F28839C4
:100AF0000DE021688903EFE78901EDE7FFF782FC4C
:100B0000A0EB0801494502D90320BDE8F0876068E1
:100B1000696800F00C00B0EB810FEFD1306800F095
:100B20000700B8420BD9306820F007003843306026
:100B3000306800F00700B84201D00120E5E72878CE
:100B4000400705D56068E96820F4E060084360600C
:100B50002878000706D56068296920F4605040EACB
:100B6000C100606000F028F86168084AC1F3031111
:100B7000515CC8400649086006480068FFF706FF58
:100B80000020C2E70020024000100240EC130008E1
:100B9000180000201000002004480549006849683A
:100BA000044AC1F30221515CC8407047180000207C
:100BB00000100240FC13000812A185B00FC98DE897
:100BC0000F0014A0144A006804905168134801F003
:100BD0000C03042B10D0082B0ED1C1F38343C9039F
:100BE0001DF803000AD5516804AAC1F34041515CC5
:100BF0000A4A5043B0FBF1F005B07047084948433A
:100C0000FAE7000002030405060708090A0B0C0DA9
:100C10000E0F1010010200000010024000127A00B6
:100C200000093D002DE9F84F040070D02078C04D38
:100C3000C00749D06868C0F38100012807D0686800
:100C4000C0F38100022809D16868C00306D528686E
:100C5000800339D560680028E7D035E06068B0F5DA
:100C6000803F0BD010B1B0F5A02F11D0286820F430
:100C700080302860286820F4802002E0286840F452
:100C800080302860606890B1FFF7BCFB06460AE040
:100C9000286840F480202860F0E700BFFFF7B2FB2F
:100CA000801B642873D828688003F7D50CE0FFF711
:100CB000A9FB064605E000BFFFF7A4FB801B6428E4
:100CC000F0D828688003F7D420789A4E80074FF038
:100CD00001094FF0000839D5686810F00C0F07D0F3
:100CE0006868C0F38100022809D16868C00306D48F
:100CF0002868800714D52069012808D110E02069F0
:100D0000B0B1C6F80090FFF77DFB074605E00AE1A9
:100D1000FFF778FBC01B0228C4D828688007F7D5E6
:100D20002868616920F0F80040EAC10028600DE001
:100D3000C6F80080FFF766FB074604E0FFF762FB9A
:100D4000C01B022823D828688007F7D42078000722
:100D50002CD57948A169D9B1C0F80090FFF752FBB2
:100D6000074604E0FFF74EFBC01B02280FD8686A55
:100D70008007F7D571484FF4FA510068B0FBF1F0E5
:100D8000009000BF0098411E0091FAD20EE080E072
:100D9000C0F80080FFF736FB074604E0FFF732FBA0
:100DA000C01B022875D8686A8007F7D420784007EE
:100DB00060D5E8690027C00008D4E86940F0805099
:100DC000E861E869012700F0805000905C48016804
:100DD000C90513D40168834641F480710160FFF7AF
:100DE00011FB824606E000BFFFF70CFBA0EB0A00F8
:100DF00064284ED8DBF80000C005F5D5E06801286E
:100E00000AD008B1052813D0286A20F00100286212
:100E1000286A20F0040002E0286A40F001002862FD
:100E2000E06841F2883B98B1FFF7ECFA82460BE0AC
:100E3000286A40F004002862EEE700BFFFF7E2FAFC
:100E4000A0EB0A0159455AD8286A8007F6D50CE06C
:100E5000FFF7D8FA824605E0FFF7D4FAA0EB0A01C3
:100E600059454CD8286A8007F6D41FB1E86920F0AC
:100E70008050E861E06988B36968C1F381010229A3
:100E800044D00228C6F8608004D0FFF7BBFA0446BD
:100E900038E034E0FFF7B6FA074604E0FFF7B2FAAD
:100EA000C01B02282BD828688001F7D4206AB0F52F
:100EB000803F05D16868A16820F40030084368606D
:100EC000D4E908010843696821F474110843686093
:100ED000C6F86090FFF796FA044606E025E000BFEA
:100EE000FFF790FA001B022809D828688001F7D57F
:100EF0001BE000BFFFF786FA001B022802D903207F
:100F0000BDE8F88F28688001F4D40EE00128F7D0FE
:100F10006868226A00F48031914204D1616A00F469
:100F20007010884201D00120EAE70020E8E70000C5
:100F3000001002400000424280044242180000209B
:100F40000070004010B5401EB0F1807F01D3012039
:100F500010BD4FF0E02460610F21601700F0BBF975
:100F60000020A06107202061002010BDFEE701687D
:100F70004A69D24352050FD46FF480624A6100215E
:100F800040F8301F202242738173026942F004024C
:100F90000261017301207047002070472DE9F84F6E
:100FA0000446006889460B9D01689846174641F43F
:100FB000806101602068016841F4807101600095E2
:100FC0004FF0011A0022514620460A9B00F059F8C2
:100FD000002853D1216809F0FE0008610AF1010BD5
:100FE0002B46594620460A9A00F07FF8F0BB20684D
:100FF0004169806900902A4620460A9900F0F3F87A
:1010000040B1206C042839D12068016841F4007196
:10101000016033E0FEB2B8F1010F09D02168380A4F
:1010200008612A4620460A9900F0DDF80028E8D138
:10103000206806612A4620460A9900F0D4F8002864
:10104000DFD12068016841F48071016000950022C1
:10105000514620460A9B00F014F838B9216809F07F
:10106000FF0040F0010008612B4600E006E0594611
:1010700020460A9A00F039F8002800D00120BDE887
:10108000F88F2DE9F0471E4690460D460446C1F301
:101090000747DDF8209008E0701C06D0FFF7B2F992
:1010A000A0EB0900B0420FD876B12068012F18D00C
:1010B000806925EA00000004000C14D0002141459D
:1010C000EAD00020BDE8F087002044F8300F20214E
:1010D0006173A073216941F0200121612073012017
:1010E000F0E74069E5E70121E9E72DE9F0479A4695
:1010F00091460E46044600254FF02008C1F30747ED
:1011000025E020684069C043400514D42068016888
:1011100041F40071016021686FF4806048612563CB
:1011200084F83D8084F83E50206C40F00400206438
:1011300084F83C501FE0B9F1FF3F08D0FFF762F997
:10114000A0EB0A0149450CD8B9F1000F09D020687D
:10115000012F13D0806926EA00000004000C0BD098
:10116000CFE744F8305F84F80D80A573206940F024
:101170002000206125730120BDE8F0874069EAE77F
:101180002DE9F041002590460E460446202717E041
:101190004069C043C0060CD454F8301B6FF01000F7
:1011A000486144F810596777A577206A206225774F
:1011B00017E0FFF727F9A0EB0800B04208D83EB1CE
:1011C00020684169C9434906E2D40020BDE8F081A6
:1011D00044F8305F6773A573206940F020002061F8
:1011E00025730120F2E770B516460D4604460DE062
:1011F0002046FFF7BCFE08B1012070BD681C05D079
:10120000FFF700F9801BA84207D835B12068406974
:10121000C0430006ECD4002070BD002044F8300F1D
:1012200020216173A073216941F0200121612073A5
:10123000E2E7FEE7704770477047FFF78DBB30B5B8
:101240008FB028216846FEF774FF14210AA8FEF724
:1012500070FF01210804CDE900100024029402254A
:101260000491CDE907504FF4E01009906846FFF76C
:10127000D9FC0F20CDE90A056802CDE90C40022116
:101280000AA80E94FFF7F2FB0FB030BD0D480168BD
:1012900041F00101016041680B4A11404160016861
:1012A0000A4A11400160016821F48021016041680F
:1012B00021F4FE0141604FF41F0181600449C00325
:1012C00008607047001002400000FFF8FFFFF6FEC4
:1012D00008ED00E0FEE70907090E002804DB00F135
:1012E000E02080F80014704700F00F0000F1E020CB
:1012F00080F8141D704702E008C8121F08C1002AB8
:10130000FAD170477047002001E001C1121F002A86
:10131000FBD170470EB5FFF727FBFFF790FF2F4873
:10132000816941F020018161816901F02001009112
:10133000816941F004018161816901F0040100913A
:10134000816941F0080181618069254900F0080048
:10135000009024484FF48042016042F210714160D5
:1013600000218160C0E9031241618161C1610162B4
:10137000FFF74EF81C4C012020700006C10D0A2317
:1013800001221848FFF7FEF820B32078401CC0B2B5
:1013900020708028F1D3144D642602276D1C6FF055
:1013A00003084FF4FA79CDE9005701230022902178
:1013B0000C480296FFF792F9288840BA0009A080ED
:1013C000FEF7CEFE4146FEF7BFFEA0604846FEF7A0
:1013D00017FFE8E721782170DDE7000000100240E8
:1013E000005400401C00002000000020000000000D
:1013F00000000000010203040607080900000000C5
:101400000102030424140008000000201C00000056
:10141000F6120008401400081C00002054040000CC
:10142000061300080000000000000000000000009B
:101430000100000010000000000000000024F40083
:04000005080000ED02
:00000001FF
