:020000040800F2
:10000000400400209D010008870F0008D50E00085D
:10001000850F0008A9020008FD0F0008000000007D
:100020000000000000000000000000008B0F00082E
:10003000AB02000800000000890F00088D0F0008C7
:10004000B7010008B7010008B7010008B7010008B0
:10005000B7010008B7010008B7010008AD020008A9
:10006000B7010008B7010008B7010008B701000890
:10007000B7010008B7010008B7010008B701000880
:10008000B7010008B7010008B7010008B701000870
:10009000B7010008B7010008B7010008B701000860
:1000A000B7010008B7010008B7010008B701000850
:1000B000B7010008B7010008B7010008B701000840
:1000C000B7010008B7010008B7010008B701000830
:1000D000B7010008B7010008B7010008B701000820
:1000E000B7010008B7010008B7010008B701000810
:1000F000B7010008B7010008B7010008B701000800
:10010000000000000000000000000000B70100082F
:10011000B7010008B7010008B7010008B7010008DF
:10012000B7010008B7010008B7010008B7010008CF
:10013000B7010008B701000800000000000000003F
:10014000B7010008B7010008B7010008000000006F
:10015000000000000000000000000000000000009F
:100160000000000000000000B7010008B70100080F
:10017000B7010008000000000000000000000000BF
:1001800000000000B7010008DFF80CD000F07AF89A
:10019000004800473D100008400400200648804702
:1001A00006480047FEE7FEE7FEE7FEE7FEE7FEE75C
:1001B000FEE7FEE7FEE7FEE7E10F00088901000821
:1001C0002DE9F05F0546002092469B46884606468C
:1001D000814640241BE0284641464746224600F01F
:1001E00020F853465A46C01A914110D3114618467A
:1001F000224600F038F82D1A67EB01084F462246D8
:100200000120002100F02FF817EB00094E41201EBD
:10021000A4F10104DFDC484631462A464346BDE8E6
:10022000F09F202A04DB203A21FA02F000217047D7
:1002300021FA02F3D040C2F120029140084319464E
:100240007047D2B201E000F8012B491EFBD2704783
:100250000022F6E710B513460A4604461946FFF792
:10026000F0FF204610BD202A04DB203A00FA02F1FC
:10027000002070479140C2F1200320FA03F3194394
:1002800090407047064C074D06E0E06840F00103DF
:1002900094E8070098471034AC42F6D3FFF778FF94
:1002A00080100008A0100008FEE77047022000F050
:1002B000D3B870B5040003D094F8200010B104E066
:1002C000012070BD204600F081F82068016821F00F
:1002D0000201016000F096F90546052604E000F0F1
:1002E00091F9401B0A2811D8206840688007F6D48D
:1002F0002068016841F00101016000F083F90546C2
:100300000BE000F07FF9401B0A2806D9606A40F430
:100310000030606284F82060D2E720684068C0073F
:10032000EFD0207E0128206801683DD021F08001B7
:100330000160607E01282068016838D021F040010A
:100340000160A07E01282068016833D021F02001DF
:100350000160E07E0128206801682ED041F0100184
:100360000160207F01282068016829D021F0080160
:100370000160607F01282068016824D021F0040119
:100380000160D4E902010843D4E90412114308438F
:100390006168491E08432168C8610020606201202D
:1003A00084F82000002070BD41F08001C0E741F0DA
:1003B0004001C5E741F02001CAE721F01001CFE775
:1003C00041F00801D4E741F00401D9E710B586B047
:1003D000044614216846FFF73BFF13492068884212
:1003E0001FD11248C16941F00071C161C16901F0BA
:1003F00000710591416941F40031416140696946EC
:1004000000F4003005904FF4C0500090022001909D
:10041000002002900320039009200490C00600F001
:1004200027F806B010BD0000006400400010024034
:1004300010B502280CD101214FF0904000F0DCF8FB
:1004400004490028087801D0401C00E0401E0870D4
:1004500010BD000000000020044910B50A680242E7
:1004600002D00860FFF7E4FF10BD00001404014053
:100470002DE9F84FDFF864B100234FF0010C4FF085
:10048000030A4FF00F090BF1040EA0E00CFA03F67B
:10049000324072D04C68022C01D0122C0ED1DC08F4
:1004A00000EB8408D8F820405D07EF0E09FA07F545
:1004B000AC430D69BD402543C8F8205007685D0076
:1004C00091F804800AFA05F408F00308A74308FA33
:1004D00005F848EA0708C0F800804F68012F05D0EA
:1004E000022F03D0112F01D0122F11D18768D1F81C
:1004F0000C80A74308FA05F848EA0708C0F8088006
:100500004768B7430E79C6F300169E403E434660E7
:10051000C668A6438C68AC403443C4604C68E400B1
:1005200054D52F4CA56945F00105A561A46923F0B8
:10053000030504F0010400942A4C2E19B4689D07A9
:100540002F0F09FA07F5AC43B0F1904F04D0264DB8
:10055000A84203D1012512E0002510E0234DA84256
:1005600001D102250BE0224DA84201D1032506E06E
:10057000204DA84202D1042501E027E00525BD4019
:100580002543B560DBF800405D464E689443F603B2
:1005900000D514432C60DEF8004075464E68944345
:1005A000B60300D514432C600C4D08352C684E68FA
:1005B0009443F60200D514432C60084D0C352C688A
:1005C0004E689443B60200D514432C605B1C0A6845
:1005D00032FA03F47FF45AAFBDE8F88F000401400B
:1005E00000100240000001400004004800080048DC
:1005F000000C0048001000480069084000D00120AD
:100600007047000001488068704700000400002027
:10061000024881680278114481607047040000201C
:10062000074810B5016841F010010160032000F097
:100630006DF8002000F006F800F024F8002010BD4E
:100640000020024070B50D4D04464FF47A712878B1
:10065000B1FBF0F00A490968B1FBF0F000F026FCAC
:1006600048B9102C07D200222146501E00F02EF867
:1006700000206C6070BD012070BD000004000020EF
:1006800010000020094808B5816941F0010181612D
:10069000816901F001010091C16941F08051C1619E
:1006A000C06900F08050009008BD000000100240BA
:1006B000002809DB00F01F02012191404009800061
:1006C00000F1E020C0F8001170470000F0B40E4BBC
:1006D0001B680C46C3F30223C3F10705042D00D9A0
:1006E0000425191D072901D2002300E0DB1E012685
:1006F00006FA05F1491E214099409E40761E16409B
:100700003143F0BC00F07BBC0CED00E0064900F08A
:10071000070208684FF6FF03184040EA0220034A28
:1007200010430860704700000CED00E00000FA057F
:100730002DE9F0470F46050069D04A4E306800F0B9
:100740000700B84209D2306820F007003843306013
:10075000306800F00700B84259D12878424C800731
:1007600005D56068A96820F0F0000843606028782B
:10077000C0073DD06968012001290DD0022923D08E
:100780005FF0020393FAA3F2B2FA82F242F020027F
:10079000520904D0226803E04FF40033F2E7626AA2
:1007A00093FAA3F3B3FA83F303F01F0398400242D2
:1007B0002DD0606820F0030008436060FFF722FF3F
:1007C000804641F288390CE04FF00073DAE700BF51
:1007D000FFF718FFA0EB0801494502D90320BDE847
:1007E000F0876068696800F00C00B0EB810FEFD112
:1007F000306800F00700B8420BD9306820F00700DD
:1008000038433060306800F00700B84201D0012062
:10081000E5E72878400705D56068E96820F4E060DE
:10082000084360602878000706D56068296920F4CD
:10083000605040EAC100606000F01EF86168F0227C
:1008400092FAA2F201F0F001B2FA82F2D140074A24
:10085000515CC8400649086006480068FFF7F2FE90
:100860000020BCE700200240001002406E1000088B
:100870001000002008000020164A10B551681648E4
:1008800001F00C03042B20D0082B1ED14FF4701460
:1008900094FAA4F401F47013B4FA84F4E3400F4C16
:1008A000D26AE45C0F2393FAA3F302F00F02B3FAC7
:1008B00083F3DA40094B1033C9039A5C06D5002351
:1008C0001946FFF77DFCA0FB040110BD0448A4FB02
:1008D000000110BD0010024000127A004E10000806
:1008E00000093D002DE9F84F050071D02878FC4E35
:1008F000C0074FF0010425D070686704C0F3810081
:10090000012807D07068C0F3810002281BD17068ED
:10091000C00318D597FAA7F0B0FA80F040F0200095
:10092000400901D0306800E0706A97FAA7F1B1FA87
:1009300081F101F01F0104FA01F1084265D06868F5
:100940000028D2D061E06868B0F5803F0BD010B1CC
:10095000B0F5A02F17D0306820F4803030603068B8
:1009600020F4802002E0306840F480303060F06A8B
:10097000A96820F00F000843F062686820B3FFF711
:1009800041FE80460AE0306840F480203060EAE7AB
:10099000FFF738FEA0EB0800642871D897FAA7F09B
:1009A000B0FA80F040F02000400901D0306800E04B
:1009B000706A97FAA7F1B1FA81F101F01F0104FA08
:1009C00001F10842E4D020E0FFF71CFE804607E07A
:1009D000C2E000BFFFF716FEA0EB08006428DCD8D9
:1009E00097FAA7F0B0FA80F040F02000400901D05B
:1009F000306800E0706A97FAA7F1B1FA81F101F06E
:100A00001F0104FA01F10842E4D12878DFF8D4820A
:100A100080074FF0000A4FF0020730D570684FF0A2
:100A2000F80B10F00C0F07D07068C0F3810002289B
:100A300027D17068C00324D497FAA7F0B0FA80F0E9
:100A400040F02000400901D0306800E0706A97FA59
:100A5000A7F1B1FA81F101F01F0104FA01F1084296
:100A600002D02869012877D130689BFAABF220F0D8
:100A7000F8016869B2FA82F29040014331605AE0AD
:100A800064E1286988B394FAA4F0B0FA80F048F8D9
:100A90002040FFF7B7FD814606E000BFFFF7B2FD3B
:100AA000A0EB090002289AD897FAA7F0B0FA80F0D4
:100AB00040F02000400901D0306800E0706A97FAE9
:100AC000A7F1B1FA81F101F01F0104FA01F1084226
:100AD000E4D030689BFAABF26969B2FA82F220F096
:100AE000F80091400843306025E0FFE794FAA4F055
:100AF000B0FA80F048F820A0FFF784FD814605E0B9
:100B0000FFF780FDA0EB09000228CCD897FAA7F0E8
:100B1000B0FA80F040F02000400901D0306800E0D9
:100B2000706A97FAA7F1B1FA81F101F01F0104FA96
:100B300001F10842E4D1287800076CD5A869A8B370
:100B400094FAA4F0B0FA80F008EB8000C0F880447A
:100B5000FFF758FD814607E0A4E100BFFFF752FD13
:100B6000A0EB090002289ED897FAA7F0B0FA80F00F
:100B700040F06000B4EB501F01D130680BE097FAF1
:100B8000A7F0B0FA80F040F06000B7EB501F01D141
:100B9000306A00E0706A97FAA7F1B1FA81F101F0CA
:100BA0001F0104FA01F21042D8D034E0FFE794FAB2
:100BB000A4F1B1FA81F108EB8101C1F880A4FFF73B
:100BC00021FD814606E000BFFFF71CFDA0EB0900F8
:100BD00002289AD897FAA7F0B0FA80F040F06000A7
:100BE000B4EB501F01D130680BE097FAA7F0B0FAD0
:100BF00080F040F06000B7EB501F01D1306A00E098
:100C0000706A97FAA7F1B1FA81F101F01F0104FAB5
:100C100001F21042D8D12878400768D5F0694FF02A
:100C20000009C00009D4F06940F08050F061F0691B
:100C30004FF0010900F0805000902B480168C90571
:100C400012D4016841F480710160FFF7DBFC834638
:100C500006E000BFFFF7D6FCA0EB0B00642875D8B8
:100C600021480068C005F5D5E86801280AD008B118
:100C7000052811D0306A20F001003062306A20F07F
:100C8000040002E0306A40F001003062E86868B3B6
:100C9000FFF7B8FC83460DE0306A40F00400306294
:100CA000F0E700BFFFF7AEFCA0EB0B0141F288308C
:100CB00081424BD897FAA7F0B0FA80F040F040009C
:100CC000B4EB501F01D1306813E097FAA7F0B0FAE7
:100CD00080F040F04000B7EB501F09D1306A08E0C7
:100CE0000010024000004242007000400CE040E072
:100CF000706A97FAA7F1B1FA81F101F01F0104FAC5
:100D000001F21042CED02DE0FFF77CFC834607E0D5
:100D1000FFF778FCA0EB0B0141F28830814215D837
:100D200097FAA7F0B0FA80F040F04000B4EB501F03
:100D300001D130680CE097FAA7F0B0FA80F040F0EB
:100D40004000B7EB501F02D1306A01E083E0706AC7
:100D500097FAA7F1B1FA81F101F01F0104FA01F24B
:100D60001042D5D1B9F1000F03D0F06920F08050C6
:100D7000F061E86980B37168C1F38101022977D01D
:100D80004FF080714F000228504609D091FAA1F12E
:100D9000B1FA81F148F82100FFF734FC05465DE027
:100DA000894691FAA1F1B1FA81F1C24648F82100D1
:100DB000FFF728FC804605E0FFF724FCA0EB0800C5
:100DC000022848D897FAA7F0B0FA80F040F0200047
:100DD000400902D0306801E066E0706A97FAA7F136
:100DE000B1FA81F101F01F0104FA01F10842E3D1E7
:100DF000D5E908100843716821F474110843706044
:100E000099FAA9F0B0FA80F04AF82040FFF7FAFB0F
:100E1000054604E0FFF7F6FB401B02281BD897FAB3
:100E2000A7F0B0FA80F040F02000400901D030680F
:100E300000E0706A97FAA7F1B1FA81F101F01F01A1
:100E400004FA01F10842E5D02EE000BFFFF7DAFB1B
:100E5000401B022802D90320BDE8F88F97FAA7F0BB
:100E6000B0FA80F040F02000400902D0306801E084
:100E70000BE0706A97FAA7F1B1FA81F101F01F0156
:100E800004FA01F10842E1D10EE00128E4D07068D3
:100E90002A6A00F48031914204D1696A00F470102A
:100EA000884201D00120D7E70020D5E710B5401EC9
:100EB000B0F1807F01D3012010BD4FF0E0246061CC
:100EC0000F21601700F09BF80020A061072020612F
:100ED000002010BDFEE700000C480B494FF44022F3
:100EE000016009214160890781600021C0E9031286
:100EF0004FF480124261017641768176C1760177A6
:100F00004177FFF7D6B900000064004014000020CC
:100F100030B587B014216846FFF79AF91748416940
:100F200041F480014161416901F480010591416909
:100F300041F4003141614069002400F40030059023
:100F40000120CDE900044FF09045694628460294FF
:100F5000FFF78EFA022000900948CDE901046946A6
:100F60002846FFF785FA002211460720FFF7AEFB5F
:100F70000720FFF79DFB07B030BD000000100240C6
:100F800000001110FEE7704770477047FFF740BB45
:100F900030B58FB028216846FFF75AF914210AA806
:100FA000FFF756F901210804CDE90010002402944E
:100FB00002250491CDE907504FF4E01009906846EE
:100FC000FFF790FC0F20CDE90A056802CDE90C403F
:100FD00002210AA80E94FFF7ABFB0FB030BD000052
:100FE0000548016841F47001016003494FF0006059
:100FF000803908607047000088ED00E0FEE70907CF
:10100000090E002804DB00F1E02080F8001470478E
:1010100000F00F0000F1E02080F8141D704702E09E
:1010200008C8121F08C1002AFAD170477047002073
:1010300001E001C1121F002AFBD17047FFF7F0FA4F
:10104000FFF7A6FFFFF764FFFFF746FFFEE7020387
:101050000405060708090A0B0C0D0E0F10100102FB
:10106000030405060708090A0B0C0D0E0F100000FB
:101070000000000000000102030406070809000048
:10108000A010000800000020140000001E1000083E
:10109000B4100008140000202C0400002E100008DA
:1010A000000000000100000010000000000000002F
:0410B00000127A00B0
:040000050800018965
:00000001FF
