:020000040800F2
:1000000080060020010100082B0C0008950B000859
:10001000290C000891010008230D000800000000D1
:100020000000000000000000000000002F0C00088D
:1000300093010008000000002D0C0008310C00089E
:100040001B0100081B0100081B0100081B01000820
:100050001B0100081B0100081B0100081B01000810
:100060001B0100081B0100081B0100081B01000800
:100070001B0100081B0100081B0100081B010008F0
:100080001B0100081B0100081B0100081B010008E0
:100090001B0100081B0100081B0100081B010008D0
:1000A0001B0100081B0100081B0100081B010008C0
:1000B0001B0100081B0100081B0100081B010008B0
:1000C0001B0100081B0100081B0100081B010008A0
:1000D0001B0100081B0100081B0100081B01000890
:1000E0001B0100081B0100081B010008DFF80CD0F1
:1000F00000F03CF800480047650D0008800600202D
:100100000648804706480047FEE7FEE7FEE7FEE7B1
:10011000FEE7FEE7FEE7FEE7FEE7FEE7950C0008D8
:10012000ED00000840EA01039B0703D009E008C97D
:10013000121F08C0042AFAD203E011F8013B00F8AC
:10014000013B521EF9D27047D2B201E000F8012BF8
:10015000491EFBD270470022F6E710B513460A4647
:1001600004461946FFF7F0FF204610BD064C074D28
:1001700006E0E06840F0010394E807009847103477
:10018000AC42F6D3FFF7B6FFF40D0008140E0008DA
:10019000FEE7704770B5044600F008F90546601C9C
:1001A00002D004480078044400F000F9401BA0424B
:1001B000FAD370BD000000202DE9F84FDFF8B891A8
:1001C000002409F1040A0AF1040B23460F270BF15E
:1001D000040EC9E00125A5402A40AA427DD1674E00
:1001E000D1F804C0ACEB0608B44532D014DCBCF145
:1001F000030F3AD009DCBCF1000F2AD0BCF1010F8B
:100200001CD0BCF1020F31D11DE0BCF1110F17D091
:10021000BCF1120F2AD119E0B8F5881F19D006DCFD
:10022000B8F5803F15D0B8F5801F1FD111E0B8F5A3
:10023000001F0ED0B8F5041F18D10AE0CB6815E0F6
:10024000CB681B1D12E0CB6808330FE0CB680C3382
:100250000CE08B682BB1012B4FF0080303D04561F4
:1002600004E0042302E0056100E00023FF2A01D836
:10027000064601E000F104064FEA840501D9A5F124
:100280002005D6F8008007FA05FC28EA0C0803FAD6
:1002900005F548EA0508C6F800804D68ED0062D50E
:1002A000374DAE6946F00106AE61AD6924F0030634
:1002B00005F001050095334D06EB050CDCF8085000
:1002C000A607360F07FA06F825EA0805DFF8B88012
:1002D000404503D14FF0000817E044E0DFF8AC8060
:1002E000404502D14FF001080FE0DFF8A4804045FF
:1002F00002D14FF0020808E0DFF89880404502D1B3
:100300004FF0030801E04FF0040808FA06F848EA45
:100310000508CCF808804D68D9F80060ED034D461B
:1003200001D5164300E096432E604D68DAF8006070
:10033000AD03554601D5164300E096432E604D6847
:10034000DBF80060ED025D4601D5164300E0964300
:100350002E604D68DEF80060AD02754601D516438B
:1003600000E096432E60641C0D682A46E5407FF449
:1003700031AFBDE8F88F000000040140000011100B
:10038000001002400000014000080140000C014044
:1003900000100140001401408068084000D0012096
:1003A00070470AB1016170470904FBE701488068A2
:1003B0007047000000000020024881680278114464
:1003C0008160704700000020074810B5016841F0C7
:1003D00010010160032000F067F8002000F006F82B
:1003E00000F024F8002010BD0020024070B50D4D33
:1003F00004464FF47A712878B1FBF0F00A49096895
:10040000B1FBF0F000F0B2FB48B9102C07D200228B
:100410002146501E00F028F800206C6070BD0120BD
:1004200070BD0000000000200C0000200C4808B542
:10043000816941F001018161816901F0010100914F
:10044000C16941F08051C161C06900F080500090E5
:100450000448416821F0E06141F00071416008BD4D
:100460000010024000000140F0B40E4B1B680C4627
:10047000C3F30223C3F10705042D00D90425191D78
:10048000072901D2002300E0DB1E012606FA05F150
:10049000491E214099409E40761E16403143F0BCD3
:1004A00000F040BC0CED00E0064900F007020868CF
:1004B0004FF6FF03184040EA0220034A1043086049
:1004C000704700000CED00E00000FA052DE9F04156
:1004D00086B0040004D094F82902002520B108E079
:1004E000012006B0BDE8F08184F82852204600F0D3
:1004F00057F8032084F82902206800F002FC04F178
:100500001001142288466846FFF70CFE94E80F009D
:1005100000F0E4FB0227B0BB0021206800F0FFFBE5
:10052000002001260DE000BF04EB401181F8296096
:1005300001F8280FC881CD700D614D61401CC0B21B
:100540008D6161688142EFD800200FE004EB40111B
:1005500081F8295181F8280181F82B51C1F83851CF
:10056000C1F83C51401CC0B2C1F8405161688142A1
:10057000ECD8142241466846FFF7D4FD94E80F00FA
:1005800000F0B0FB10B184F82972A9E784F8245078
:1005900084F82962206800F0A3FB0020A1E7000096
:1005A00008B500680649884208D10648C16941F487
:1005B0000001C161C06900F40000009008BD0000A6
:1005C000005C0040001002402DE9F8430546007829
:1005D000354CC00754D0E0690026C00008D4E0695B
:1005E00040F08050E061E069012600F0805000900A
:1005F0002E480168C90512D40168804641F4807113
:100600000160FFF7D3FE074605E000BFFFF7CEFE0F
:10061000C01B642823D8D8F80000C005F6D5206A8E
:1006200010F4407021D0A98801F4407181421CD09F
:10063000206A1F49012220F440700A6000220A60EB
:100640002062C00711D0FFF7B1FE074641F288389B
:1006500008E000BFFFF7AAFEC11B414502D90320F5
:10066000BDE8F883206A8007F4D5206A696820F421
:100670004070084320621EB1E06920F08050E061C4
:100680002878800705D56068A96820F440400843B1
:1006900060602878C00605D56068E96820F48000AD
:1006A000084360600020DBE700100240007000405B
:1006B000400442422DE9F0470F46050061D0434E09
:1006C000306800F00700B84209D2306820F0070017
:1006D00038433060306800F00700B84251D12868D4
:1006E0003B4C810712D5400703D5606840F4E060B9
:1006F00060602878000703D5606840F4605060604F
:100700006068A96820F0F000084360602878C0079E
:1007100028D06868012810D02168022810D08907E5
:1007200000292EDA616821F0030101436160FFF7BF
:100730003DFE804641F288390DE021688903EFE7EC
:100740008901EDE7FFF732FEA0EB0801494502D928
:100750000320BDE8F0876068696800F00C00B0EB2A
:10076000810FEFD1306800F00700B8420BD9306834
:1007700020F0070038433060306800F00700B842CE
:1007800001D00120E5E72878400705D56068E968D1
:1007900020F4E060084360602878000706D56068B0
:1007A000296920F4605040EAC100606000F018F848
:1007B0006168084AC1F30311515CC84006490860EA
:1007C00006480068FFF712FE0020C2E70020024042
:1007D00000100240E40D00080C000020040000207E
:1007E00012A185B00FC98DE80F0014A0144A00684B
:1007F00004905168134801F00C03042B10D0082B0F
:100800000ED1C1F38343C9031DF803000AD5516813
:1008100004AAC1F34041515C0A4A5043B0FBF1F0D5
:1008200005B0704708494843FAE700000203040591
:10083000060708090A0B0C0D0E0F1010010200002C
:100840000010024000127A0000093D002DE9F84F27
:10085000040070D02078C04DC00749D06868C0F34C
:100860008100012807D06868C0F38100022809D1FF
:100870006868C00306D52868800339D560680028F9
:10088000E7D035E06068B0F5803F0BD010B1B0F52F
:10089000A02F11D0286820F480302860286820F428
:1008A000802002E0286840F480302860606890B1C1
:1008B000FFF77CFD06460AE0286840F480202860A7
:1008C000F0E700BFFFF772FD801B642873D828682B
:1008D0008003F7D50CE0FFF769FD064605E000BF91
:1008E000FFF764FD801B6428F0D828688003F7D4E4
:1008F00020789A4E80074FF001094FF0000839D553
:10090000686810F00C0F07D06868C0F381000228F7
:1009100009D16868C00306D42868800714D5206907
:10092000012808D110E02069B0B1C6F80090FFF7A7
:100930003DFD074605E00AE1FFF738FDC01B022830
:10094000C4D828688007F7D52868616920F0F800C6
:1009500040EAC10028600DE0C6F80080FFF726FDE0
:10096000074604E0FFF722FDC01B022823D82868B1
:100970008007F7D4207800072CD57948A169D9B130
:10098000C0F80090FFF712FD074604E0FFF70EFDE8
:10099000C01B02280FD8686A8007F7D571484FF44A
:1009A000FA510068B0FBF1F0009000BF0098411EC2
:1009B0000091FAD20EE080E0C0F80080FFF7F6FC6C
:1009C000074604E0FFF7F2FCC01B022875D8686AEE
:1009D0008007F7D42078400760D5E8690027C00079
:1009E00008D4E86940F08050E861E869012700F028
:1009F000805000905C480168C90513D401688346A3
:100A000041F480710160FFF7D1FC824606E000BF2F
:100A1000FFF7CCFCA0EB0A0064284ED8DBF80000FE
:100A2000C005F5D5E06801280AD008B1052813D023
:100A3000286A20F001002862286A20F0040002E001
:100A4000286A40F001002862E06841F2883B98B1D2
:100A5000FFF7ACFC82460BE0286A40F004002862F5
:100A6000EEE700BFFFF7A2FCA0EB0A0159455AD8F8
:100A7000286A8007F6D50CE0FFF798FC824605E06F
:100A8000FFF794FCA0EB0A0159454CD8286A80076F
:100A9000F6D41FB1E86920F08050E861E06988B3BE
:100AA0006968C1F38101022944D00228C6F8608038
:100AB00004D0FFF77BFC044638E034E0FFF776FC17
:100AC000074604E0FFF772FCC01B02282BD82868F9
:100AD0008001F7D4206AB0F5803F05D16868A1682D
:100AE00020F4003008436860D4E9080108436968CD
:100AF00021F4741108436860C6F86090FFF756FC53
:100B0000044606E025E000BFFFF750FC001B02286A
:100B100009D828688001F7D51BE000BFFFF746FC25
:100B2000001B022802D90320BDE8F88F2868800145
:100B3000F4D40EE00128F7D06868226A00F480310E
:100B4000914204D1616A00F47010884201D0012002
:100B5000EAE70020E8E700000010024000004242FF
:100B6000800442420C0000200070004010B5401E7E
:100B7000B0F1807F01D3012010BD4FF0E02460610F
:100B80000F21601700F0CEF80020A061072020613F
:100B9000002010BDFEE7000070B586B000241F489D
:100BA0000094019402940394816941F010018161E1
:100BB000816901F010010491816941F02001816196
:100BC000816901F020010491816941F00401816192
:100BD000816901F004010491816941F0080181619A
:100BE0008069012200F008000D4E5503049029464B
:100BF0003046FFF7D6FB0220CDE9024000950125E3
:100C0000694601953046FFF7D7FA68028DE8310052
:100C100069460448FFF7D0FA06B070BD00100240E4
:100C200000100140000C0140FEE77047704770471C
:100C3000FFF7C2BB30B593B028216846FFF78BFAA7
:100C400014210AA8FFF787FA002401200F941094BA
:100C50001194010412948DE8130004900005CDE96D
:100C60000810022507956846FFF7F0FD0F20CDE933
:100C70000A056802CDE90C4001210AA80E94FFF78D
:100C800019FD10200F90800412900FA8FFF79CFC14
:100C900013B030BD0D48016841F0010101604168A9
:100CA0000B4A1140416001680A4A11400160016825
:100CB00021F480210160416821F4FE0141604FF47C
:100CC0001F0181600449C0030860704700100240A2
:100CD0000000FFF8FFFFF6FE08ED00E0002070477F
:100CE0000020704700B50121A0F840100021A0F8B5
:100CF0004010A0F84410A0F8501000F009F80020AF
:100D000000BD30F8401F21F43F41018000207047B2
:100D100030F8401F41F43F4101800020704700201F
:100D20007047FEE70907090E002804DB00F1E02008
:100D300080F80014704700F00F0000F1E02080F808
:100D4000141D704702E008C8121F08C1002AFAD11A
:100D500070477047002001E001C1121F002AFBD13B
:100D600070470000FFF730FBFFF764FFFFF714FF49
:100D700018481749022501600821C0E90115002122
:100D80008161C1610162FFF7A1FB134C45F255502F
:100D90002060656040F2E240A0604AF6AA20206030
:100DA0006515DFF83890DFF838804CF6CC466714CC
:100DB00029464846FFF7F0FA0028F9D126600022BC
:100DC00039464046FFF7EDFAC820FFF7E3F9EFE7B1
:100DD000005C00401000002000300040000C01408A
:100DE00000100140000000000000000001020304A8
:100DF00006070809140E000800000020100000007B
:100E0000440D0008240E00081000002070060000A9
:100E1000540D000801000000100000000000000058
:040E20000024F400B6
:04000005080000ED02
:00000001FF
